:020000040800F2
:10000000C8FC00206516000801030008030300086F
:10001000070300080B0300080F030008000000009E
:1000200000000000000000000000000013030008B2
:10003000150300080000000017030008190300085A
:100040007F1600087F1600087F1600087F1600083C
:100050007F1600087F1600087F1600087F1600082C
:100060007F1600087F1600087F1600087F1600081C
:100070007F1600087F1600087F1600087F1600080C
:100080007F1600087F1600087F1600087F160008FC
:100090007F1600087F1600087F1600087F160008EC
:1000A0007F1600087F1600087F1600087F160008DC
:1000B0007F1600087F160008193700087F16000811
:1000C0007F1600087F1600087F1600087F160008BC
:1000D0007F16000877150008890D000865060008DE
:1000E0007F1600087F1600087F1600087F1600089C
:1000F0007F1600087F1600087F1600087F1600088C
:100100007F1600087F1600087F1600087F1600087B
:100110007F1600087F1600085F050008FD04000830
:100120007F1600087F1600087F1600087F1600085B
:1001300000F002F800F0B0F80AA090E8000C824449
:100140008344AAF10107DA4501D100F0A5F8AFF226
:10015000090EBAE80F0013F0010F18BFFB1A43F0A5
:1001600001031847185A0000385A00000A444FF09B
:10017000000C10F8013B13F0070408BF10F8014B06
:100180001D1108BF10F8015B641E05D010F8016B4B
:10019000641E01F8016BF9D113F0080F1EBF10F8AF
:1001A000014BAD1C0C1B09D16D1E58BF01F801CBD2
:1001B000FAD505E014F8016B01F8016B6D1EF9D555
:1001C0009142D6D37047000000230024002500266A
:1001D000103A28BF78C1FBD8520728BF30C148BFAA
:1001E0000B6070476E2904F02783702904F0F580B6
:1001F000662905F01F84652905F01C84672905F030
:1002000019846129AFF3008003681B0A28BF41F0FD
:100210008001692904F06680642904F063807529EF
:1002200004F060806F2904F01E84782904F0C180F6
:10023000E92904F0B983E42904F0B683F52904F030
:10024000B383EF2904F01B84F82904F0C08003680D
:10025000DB0928BF41F08001632904F0288373295A
:1002600004F02D83E32904F07386F32904F07886E3
:10027000002070471FB504F0C9FE040000200021D3
:1002800005F0C2FB401C60600020002105F0A6FBC9
:10029000E0601FBD10B510BD04F08AFE1146FFF7E7
:1002A000E9FF00F009F804F067FF03B4FFF7F2FF7D
:1002B00003BC01F0E1F8000000BF00BF00BF00BFB9
:1002C00000BF00BF00BF00BF01F06CF84FF4A0609A
:1002D00001F0E8F94FF4E13001F0DDF8074841683A
:1002E000482088474FF4FA7001F099F800F04FFB6E
:1002F000642001F094F800BFFEE7000074000020C5
:10030000704700BFFEE700BFFEE700BFFEE700BF8B
:10031000FEE7704770477047704700000CB500203B
:10032000019000906C48006840F480306A49086091
:1003300000BF6948006800F4003000900198401C3C
:100340000190009818B90198B0F5A06FF1D16248FA
:10035000006800F4003010B10120009001E000209E
:1003600000900098012843D15C48006840F01000DC
:100370005A4908600846006820F0030008600846F3
:10038000006840F0020008605348406852494860E5
:100390000846406848600846406840F4806048600D
:1003A0000846406820F47C1048600846406840F4E5
:1003B000E81048600846006840F08070086000BFA0
:1003C0004548006800F000700028F9D042484068B5
:1003D00020F00300404948600846406840F00200B1
:1003E000486000BF3C48406800F00C000828F9D184
:1003F0000CBD10B5FFF792FF10BD10B53648006870
:1004000040F001003449086008464068344908401B
:100410003149486008460068324908402E49086062
:100420000846006820F4802008600846406820F4F0
:10043000FE0048604FF41F008860FFF7DAFF4FF0BE
:1004400000602949086010BD10B50021002000227D
:10045000214B5B6803F00C0121B1042906D0082967
:1004600028D107E0214B224C236027E01F4B204C72
:10047000236023E0184B5B6803F47010164B5B6835
:1004800003F48032022303EB904022B9194B43431B
:10049000174C23600DE0104B5B6803F4003323B16D
:1004A000144B4343124C236003E0104B4343104C66
:1004B000236003E00D4B0E4C236000BF00BF064BD2
:1004C0005B68C3F303130C4CE15C094B1B68CB4026
:1004D000074C236010BD00000010024000200240C5
:1004E0000000FFF8FFFFF6FE08ED00E000127A00C2
:1004F0000000002000093D000400002010B501218B
:10050000514802F0BAFD48B35048008840F400401A
:100510004E4908800846008848F20101884204D00C
:100520004A480088B0F5004F06D16421484804F0DD
:10053000CBF800204549088046480068032805D1CB
:1005400042480088C1B2424800F055FE01213E48B1
:1005500002F0A4FD00213C4802F0C6FA10BD10B51F
:1005600001213D4802F089FD70B13A480068032836
:1005700002D13AA000F0DBFF0121374802F08EFDE6
:100580000021354802F0B0FA10BD7FB505460C4693
:100590000121202001F01DFCADF80450ADF8004011
:1005A0000020ADF80600ADF802006946264801F0CB
:1005B0003FFF01221146244802F0B1FA01212248EE
:1005C00002F092FA37208DF80C0001208DF80D0012
:1005D00002208DF80E0001208DF80F0003A801F015
:1005E00066F87FBD7FB505460C460121102001F05D
:1005F000F0FBADF80450ADF800400020ADF8060067
:10060000ADF802006946144801F012FF01211248BA
:1006100002F044FD012211460F4802F080FA012148
:100620000D4802F061FA36208DF80C0000208DF89C
:100630000D0003208DF80E0001208DF80F0003A897
:1006400001F035F87FBD00000014004014000020C8
:1006500068010020180000200010004066616C6CEA
:100660006564000010B540F225517A4801F0C8FDDC
:10067000002869D07848008848F20101884206D1F4
:100680006421764804F020F80020734908807148FE
:1006900001F036FDC4B27048008800F4004008BB89
:1006A0006D48008864281EDA00216D4802F0B0FC15
:1006B0006948008818B90121694802F015FA6649AD
:1006C0000888411C644A118064490C540A2C10D1DA
:1006D0006448006803280CD01046008840F40040AD
:1006E0001146088005E05C48008840F400405A4903
:1006F00008805948008800F4004028B35948006831
:1007000020B1012811D002281DD115E052480088DF
:1007100048F20101884204D04F480088B0F5004FEC
:1007200002D100204C4908800DE04C4800F06FF9E0
:1007300000204949088006E0484800F0CFF9002031
:100740004549088000BF00BF10BD10B586B0044603
:100750000121082001F030FB0121880401F039FB60
:100760003C4801F08DFB4FF48060ADF81000032091
:100770008DF8120018208DF8130004A93A4801F0F2
:100780005FF84FF40060ADF8100004208DF81300FE
:1007900004A9354801F054F800940020ADF8040095
:1007A000ADF80600ADF80800ADF80C000C20ADF86F
:1007B0000A006946274801F0A6FB0121254801F0FF
:1007C0002EFC012240F22551224801F034FC272062
:1007D0008DF8140003208DF815008DF81600012007
:1007E0008DF8170005A800F062FF41F61F41632055
:1007F000FFF7CBFE0020184908800021184802F0BE
:1008000073F906B010BD2DE9F04106460D4664218E
:10081000164803F059FF304603F0C0FE87B205B119
:10082000AFB23A463146114803F0D7FE00240DE03E
:1008300000BF4021074801F0CDFC0028F9D00B484B
:10084000015D044801F058FC601C84B2BC42EFDB3F
:10085000BDE8F0810048004014000020680100203D
:100860000014004018000020000C0140CC010020C2
:100870002DE9F0470746884605256421E84803F03E
:1008800023FF384600F053FE2BE00A2000F0C7FD9E
:1008900000213846FFF7B7FF00260AE00A2000F0E3
:1008A000BEFDE048008800F4004000B103E0701C89
:1008B000C6B2142EF2DB00BFDA48008800F4004014
:1008C00078B1D848008800F0FF090020D549088099
:1008D0004146D34803F050FE044614B14FF00009DE
:1008E00004E0281EA5F10101CDB2CED100BF15B99B
:1008F0000020BDE8F087CCA000F019FEC84800F049
:1009000016FE0120F5E710B5C8A1C9A0FFF7B0FF9A
:100910000A2000F084FDC5A1C9A0FFF7A9FF0A20A5
:1009200000F07DFDC1A1CAA0FFF7A2FF0A2000F0E0
:1009300076FDBEA1CBA0FFF79BFF0A2000F06FFD64
:10094000BAA1CEA0FFF794FF0A2000F068FDB7A17E
:10095000CFA0FFF78DFF0A2000F061FD0120D849EC
:1009600008606421AE4803F0AFFE204610BD10B50C
:10097000AEA1D4A0FFF77CFF0446204610BD10B501
:10098000AAA1D6A0FFF774FF0446204610BD08B503
:100990000020CB4908600121042001F00DFA4FF43A
:1009A0008060ADF8000048208DF8030003208DF82A
:1009B00002006946CD4800F043FF4FF40060ADF8F7
:1009C000000010208DF8030003208DF80200694616
:1009D000C64800F035FF1021C44800F0DEFF0121B9
:1009E000C34800F0FEFF4FF4E130FFF7AEFEFFF723
:1009F000C6FF0A2000F013FDFFF7B9FF0A2000F040
:100A00000EFDFFF780FF0120AD49086008BD2DE90C
:100A1000F0410746B7A1824803F0AEFD0446B8A1F5
:100A20007F4803F0A9FD0546B8A17D4803F0A4FD69
:100A30000646A3480168B7A000F079FDB8A000F011
:100A400076FD774800F073FD002C17D08FA1B9A078
:100A5000FFF70EFF01209A4908604FF47A7000F00A
:100A6000DEFC72A185A0FFF703FF70A188A0FFF74D
:100A7000FFFE00206B490880BDE8F08155B10220DF
:100A80008F4908606421664803F01EFE0020654916
:100A90000880F1E7C6B100208949086063A1A6A0DB
:100AA000FFF7E6FE0A2000F0BAFC60A1A9A0FFF75C
:100AB000DFFE64215A4803F007FE032080490860E6
:100AC00000205849088007E06421554803F0FCFDE8
:100AD000002054490880CFE700BFCDE770B5064637
:100AE000774801688BA000F022FD9DA000F01FFD5B
:100AF0004B4800F01CFD7FA1494803F03DFD044632
:100B000082A1474803F038FD0546002C1DD05FA1A7
:100B100088A0FFF7ADFE0020694908604FF47A70A5
:100B200000F07DFC41A155A0FFF7A2FE3FA158A017
:100B3000FFF79EFE0120624908606421384803F0F7
:100B4000C3FD00203749088070BDBDB100205C495D
:100B5000086036A178A0FFF78BFE0A2000F05FFC4A
:100B600032A17CA0FFF784FE64212D4803F0ACFD88
:100B700003205349086000202A49088000BFE3E7AA
:100B800070B506464E48016862A000F0D0FC79A01E
:100B900000F0CDFC57A1224803F0EEFC04465BA117
:100BA0001F4803F0E9FC0546002C1DD037A161A0C9
:100BB000FFF75EFE0020424908604FF47A7000F0B3
:100BC0002EFC1AA12DA0FFF753FE18A130A0FFF7AD
:100BD0004FFE01203A4908606421114803F074FD7A
:100BE00000201049088070BDBDB100203449086064
:100BF0000EA151A0FFF73CFE0A2000F010FC0BA153
:100C000054A0FFF735FE6421054803F05DFD032085
:100C10002B49086000200349088000BFE3E700007B
:100C200068010020140000204F4B21004F4B0000B2
:100C300041542B43574D4F44453D300D0A000000B1
:100C400041542B5359534D53473D370D0A00000073
:100C500041542B424C4547415454535352564352EE
:100C6000450D0A0041542B424C45474154545353BF
:100C7000525653544152540D0A00000041542B4225
:100C80004C4541445653544152540D0A0000000053
:100C900041542B424C45414456444154413D22303D
:100CA00032303130363036303934433546364336DB
:100CB0003536343033303330324130220D0A0000C3
:100CC0001800002041542B424C454E414D453D22D9
:100CD0004C5F6C6564220D0A0000000041542B42F9
:100CE0004C45494E49543D320D0A00000008014070
:100CF00000023000424C45444953434F4E4E0000E1
:100D0000424C454346474D54553A000057524954CA
:100D1000450000007374617475732B2025782000E2
:100D2000636F6D6520696E746F206D73676D616EA2
:100D3000616765002B2B2B0041542B424C455350CF
:100D4000504346473D312C312C362C312C350D0A81
:100D50000000000041542B424C455350500D0A00F6
:100D6000636F6D6520696E746F207370706D616E56
:100D700061676500636F6D6520696E746F20434D18
:100D8000446D616E6167650010B540F22551794888
:100D900001F036FA80B3774801F0B2F9764908805D
:100DA0000846008800F4807074490880084600886E
:100DB00048B971480088F8B90120714908700020CD
:100DC0007049088018E06E480078012814D16A48FC
:100DD00001786C4802880088401C6A4B18806A4879
:100DE000815418460088B0F5007F05DB0020644977
:100DF000087001206549087040F227715D4801F0D4
:100E0000FFF928B1002240F227715A4801F013F986
:100E100010BD10B586B004460121242000F0CCFF9F
:100E20000121480400F0D5FF524801F029F8802044
:100E3000ADF8140010208DF8170003208DF816006F
:100E400005A9534800F0FCFC0420ADF8140018205C
:100E50008DF8170003208DF8160005A94D4800F005
:100E6000EFFC0820ADF8140004208DF8170005A948
:100E7000484800F0E5FC0121480400F0C4FF0021CF
:100E80004FF4003000F0BFFF01944FF48050ADF8F4
:100E900008000020ADF80A00ADF80C00ADF8100015
:100EA0000C20ADF80E0001A9324801F02CF82620E4
:100EB0008DF8000003208DF801008DF8020001205C
:100EC0008DF80300684600F0F2FB012240F2255144
:100ED000284801F0B0F80121264801F0A0F80020D0
:100EE0002D49086006B010BD70B505460E460120BC
:100EF0002949086000240CE000BF40211D4801F092
:100F000069F90028F9D0295D1A4801F0F5F8601C4C
:100F1000C4B2B442F0DB00BF4021164801F05AF9D8
:100F20000028F9D000201D4908701B49086070BDD9
:100F30002DE9F04107460D461848067800240020A8
:100F400028700A2000F06BFA1448007886420FD10E
:100F500076B100BF04E01248005D3855601CC4B291
:100F6000B442F8DB0D480078287000200B49087067
:100F7000BDE8F081004400401E0000202000002059
:100F80002400002022000020420400201D00002038
:100F900000140140000801409C8122421C000020F6
:100FA000300200202DE9FF4106460F4690460024FE
:100FB0000020009001900290039055208DF80000D1
:100FC000AA208DF801008DF8026000208DF8030042
:100FD0008DF80470D8F80000CDF80500D8F80400AA
:100FE000CDF80900002504E01DF80500204484B276
:100FF0006D1C0D2DF8DB2046E11704EB1161091281
:10100000A4EB0121C9B28DF80D100E216846FFF73F
:10101000FAFB002004B0BDE8F08170B588B004464A
:101020000020009001906079002141EA0060A179E0
:1010300040EA0140E17940EA0120217A40EA0105D5
:101040002079001FC6B2E078002141EA0020217912
:101050000843001F80B2ADF80E00BF48B0F8800A08
:10106000A84207D96A460121FF20FFF79BFF002015
:1010700008B070BDB848B0F8800AA8423FD1B64861
:10108000B0F8800A304481B2B348A0F8801A3246E2
:1010900004F1090105A803F0A0FAB0494819324645
:1010A00004F1090103F099FAAC4920393246886904
:1010B00005A900F0BFFAA949203988616A460121D3
:1010C000FF20FFF76FFFA448B0F8800AA34920393A
:1010D0004969884213D1A14820388069C0439F499B
:1010E0002039C96988420AD19DA000F020FA642005
:1010F00000F095F96A4601210620FFF753FF00BF73
:10110000B6E730B504460D460021002203E0A05C9E
:10111000084481B2521CA81E9042F8DA0B46C81748
:1011200001EB10600012A1EB0020C0B230BD10B581
:1011300086B004468D4A07CA03AB07C3002001905E
:10114000029000F05FFA0A2203A98448203803F0D5
:1011500089FA6079002141EA0060A17940EA014002
:10116000E17940EA0120217A08437C49203948612D
:10117000607A002141EA0060A17A40EA0140E17A08
:1011800040EA0120217B084374492039C8610021CD
:101190007148A0F8801A481E70492039886142F6CB
:1011A000E0616E4803F0B2FA71A000F0C0F901AA44
:1011B00001210520FFF7F6FE002006B010BD2DE945
:1011C000F04F01464A79C87991F806B040EA0B23FE
:1011D0000C7A4D7AC87A91F80AB040EA0B260F7B58
:1011E00091F80DC091F80E8091F80F9091F810A031
:1011F0000020BDE8F08F2DE9F04104460D4620782F
:10120000002141EA0020617840EA0106A77845F212
:10121000AA50864205D05848FFF7B2FC0020574933
:101220000880012F06D0022F26D0052F44D0062F8C
:1012300014D161E029462046FFF763FF691E615C17
:1012400088420CD04EA20121FF20FFF7ABFE6421A3
:10125000494803F039FA0020484908806CE04BA265
:1012600008210120FFF79EFE6421434803F02CFA79
:101270000020424908805FE029462046FFF741FFF1
:10128000691E615C88420CD03DA20121FF20FFF75E
:1012900089FE6421384803F017FA00203749088096
:1012A0004AE02046FFF78BFF6421334803F00CFA35
:1012B0000020324908803FE029462046FFF721FF01
:1012C000691E615C88420CD02DA20121FF20FFF72E
:1012D00069FE6421284803F0F7F9002027490880B7
:1012E0002AE02046FFF723FF6421234803F0ECF9AE
:1012F0000020224908801FE029462046FFF701FF11
:10130000691E615C88420CD01DA20121FF20FFF7FD
:1013100049FE6421184803F0D7F9002017490880D6
:101320000AE02046FFF779FE6421134803F0CCF968
:1013300000201249088000BF00BF64210E4803F05E
:10134000C3F900200D490880BDE8F08110B50021E7
:1013500011A0FFF758FA10BD54E6002074060020D3
:1013600030783036206C617374000000385A000801
:1013700030783035000000006801002014000020A3
:10138000303030303030303100000000303030311B
:1013900030313031000000004F5441206661696CEB
:1013A0006564000010B56FF0040000F0CAF92E4823
:1013B00000682E49B0FBF1F02D490870084600780E
:1013C00000EB4001C1EBC0104FF6FF7101EAC00015
:1013D0002849088010BD0146254A12784A434FF03B
:1013E000E0235A6100229A611A46126942F0010212
:1013F0001A6100BF4FF0E022106900F001021AB13B
:1014000000F48032002AF5D04FF0E022126922F079
:1014100001024FF0E0231A6100229A6170470146F1
:10142000144A12884A434FF0E0235A6100229A611D
:101430001A46126942F001021A6100BF4FF0E02221
:10144000106900F001021AB100F48032002AF5D0D0
:101450004FF0E022126922F001024FF0E0231A61FE
:1014600000229A61704700000000002000127A00FC
:101470002600002028000020014600BF704700BF62
:101480005B4A128802F04002002AF9D0C2B2584BDF
:101490001B1D1A80704710B586B00446012144F226
:1014A000040000F089FC4FF40070ADF81400032034
:1014B0008DF8160018208DF8170005A94D4800F08A
:1014C000BFF94FF48060ADF8140004208DF81700C8
:1014D00005A9484800F0B4F925208DF80000032044
:1014E0008DF801008DF8020001208DF80300684698
:1014F00000F0DDF801940020ADF80800ADF80A0016
:10150000ADF80C00ADF810000C20ADF80E0001A9EC
:10151000374800F0F8FC012240F22551344800F031
:101520008AFD0121324800F07AFD06B010BD0FB4EB
:1015300038B505A800903048009A049902F064FE7E
:10154000002000902C4803F029F885B200240DE01B
:1015500000BF4021264800F03DFE0028F9D0264873
:10156000015D234800F0C8FD601C84B2AC42EFDB93
:1015700038BC5DF814FB10B540F225511C4800F052
:101580003FFE10B31A4800F0BBFDC4B21B480088F0
:1015900000F40040C8B91948008800F4804060B1E8
:1015A0000A2C03D000201549088020E01348008849
:1015B00040F400401149088019E00D2C06D10F4875
:1015C000008840F480400D49088010E00B480088F6
:1015D000C0F30D000A490C5408480088401C074914
:1015E000088008460088C72801DD0020088010BD5B
:1015F0000038014000080140A0F100203000002028
:10160000D8F00020002011E00146002208E001F09F
:1016100001031BB1114B83EA510100E04908521C40
:10162000082AF4D10E4B43F82010401CB0F5807FFF
:10163000EAD1704770B50B4600210CE06FF07F4493
:1016400004EA10245D5C4540EDB2054E56F8255085
:1016500084EA0500491C9142F0D370BD2083B8EDA7
:1016600068F200200948804709480047FEE7FEE786
:10167000FEE7FEE7FEE7FEE7FEE7FEE7FEE7FEE742
:1016800004480549054A064B70470000FB03000863
:1016900031010008C8F60020C8FC0020C8F800206E
:1016A000C8F8002031490143314A1160704770B5D4
:1016B000002100230F22C47804B32D4C246804F4C5
:1016C000E064C4F5E064210AC1F10403CA4044782F
:1016D00004FA03F18478144021430901254C06786B
:1016E000A155047804F01F050124AC4005786D1164
:1016F000AD0005F1E025C5F8004109E0047804F0EB
:101700001F050124AC401C4D0678761145F8264093
:1017100070BD1A4A0A400243154B1B1F1A607047DE
:1017200039B1134A121D12680243114B1B1D1A6076
:1017300006E00F4A121D126882430D4B1B1D1A60F2
:101740007047042808D14FF0E021096941F00401F5
:101750004FF0E022116107E04FF0E021096921F02C
:1017600004014FF0E0221161704700000000FA050B
:101770000CED00E000E400E080E100E080FFFF1FEE
:1017800010B50446CC48844208D10121042000F061
:101790002DFB0021042000F029FB46E0C7488442CD
:1017A00008D10121082000F021FB0021082000F0D1
:1017B0001DFB3AE0C248844208D10121102000F00C
:1017C00015FB0021102000F011FB2EE0BD488442E3
:1017D00008D10121202000F009FB0021202000F089
:1017E00005FB22E0B848844208D10121402000F0E6
:1017F000FDFA0021402000F0F9FA16E0B3488442D7
:1018000008D10121802000F0F1FA0021802000F0B1
:10181000EDFA0AE0AE48844207D10121801500F0BC
:10182000E5FA0021A01500F0E1FA10BD10B5012184
:10183000084600F0DBFA0021012000F0D7FA10BDC5
:101840002DE9F04102460025002600200023002457
:10185000002791F803C00CF00F0591F803C00CF0BD
:10186000100CBCF1000F03D091F802C04CEA050542
:1018700091F800C0BCF1000F31D0146800202BE0BB
:101880004FF0010C0CFA00F3B1F800C00CEA0306AB
:101890009E4220D183004FF00F0C0CFA03F7BC439B
:1018A00005FA03FC4CEA040491F803C0BCF1280FCC
:1018B00006D14FF0010C0CFA00FCC2F814C00AE08B
:1018C00091F803C0BCF1480F05D14FF0010C0CFAA0
:1018D00000FCC2F810C0401C0828D1D31460B1F835
:1018E00000C0BCF1FF0F34DD546800202EE000F191
:1018F000080C4FF0010808FA0CF3B1F800C00CEA2C
:1019000003069E4221D183004FF00F0C0CFA03F71F
:10191000BC4305FA03FC4CEA040491F803C0BCF193
:10192000280F05D100F1080C08FA0CF8C2F8148051
:1019300091F803C0BCF1480F07D100F1080C4FF03B
:10194000010808FA0CF8C2F81080401C0828CED311
:101950005460BDE8F0814FF6FF7101800221817073
:101960000421C17070470246002093680B400BB100
:10197000012000E0002070470146886880B270476F
:1019800002460020D3680B400BB1012000E000208C
:1019900070470146C86880B2704701617047416175
:1019A00070470AB1016100E041617047C160704752
:1019B0004FF480320A438261816182618269826967
:1019C000704702460020434B18684FF6807318405A
:1019D00040EA021008433F4B186070473E49C86117
:1019E0007047F0B50A46002300240021002500F0CE
:1019F0000046B6F1004F02D1364EF16901E0354E96
:101A00007168C0F3034583B200F44016B6F5401F79
:101A100008D121F070612F4E766826F070662D4F48
:101A20007E6012E000F48016B6F5801F06D1032612
:101A300006FA05F4A14341F0706106E0460D360157
:101A400003FA06F6B14341F0706122B1460D36014A
:101A500003FA06F6314300F00046B6F1004F02D11A
:101A60001C4EF16101E01B4E7160F0BD30B50022EB
:101A70008B071C0F0F2303FA04F2164B08338C104C
:101A800053F824309343134C08348D1044F8253018
:101A900023468C1053F824308C07240F00FA04F4EA
:101AA00023430C4C08348D1044F8253030BD0A49CE
:101AB000DC3108607047000000080140000C014064
:101AC000001001400014014000180140001C0140BA
:101AD000002001400000014000002042DF48006873
:101AE00040F00100DD49086008464068DC490840D4
:101AF000DA49486008460068DA490840D749086072
:101B00000846006820F4802008600846406820F4F9
:101B1000FE0048604FF41F0088607047CF49096895
:101B200021F48031CD4A11601146096821F48021E9
:101B30001160B0F5803F03D0B0F5802F0ED106E0E4
:101B4000C649096841F48031C44A116007E0C349BD
:101B5000096841F4A021C14A116000E000BF00BF44
:101B6000704710B501460022002300204A11012AC7
:101B700002D1BA4C236806E0022A02D1B74C236A8C
:101B800001E0B64C636A01F01F02012494401C403E
:101B90000CB1012000E0002010BD38B500200090FD
:101BA0000024002500BF3120FFF7DBFF0546009829
:101BB000401C00900098B0F5A06F01D0002DF2D02D
:101BC0003120FFF7CEFF08B1012400E000242046B9
:101BD00038BD01460020A14A106820F0F80040EA14
:101BE000C10010607047A04908607047024600209D
:101BF0009A4B586820F47C1042EA01031843974B33
:101C00005860704798490866704701460020934A1B
:101C1000506820F003000843506070478F484068C8
:101C200000F00C007047014600208C4A506820F0FC
:101C3000F00008435060704701460020874A506812
:101C400020F4E06008435060704701460020834A5A
:101C5000506820F4605040EAC1005060704729B1DC
:101C60007E4A527A02437D4B5A7204E07B4A527A92
:101C700082437A4B5A7270477B49D831086070476B
:101C800001460020754A506820F4404008435060E7
:101C900070470021714A20321170704A82F820107A
:101CA000012802D004280AD104E001216B4A203225
:101CB000117005E00521694A2032117000E000BF73
:101CC00000BF70476949086070476449096A014369
:101CD000624A11627047654944390860704730B5FF
:101CE00000210022002400235C4D6D6805F00C01EA
:101CF00021B1042905D0082923D105E05C4D0560F8
:101D000022E05B4D05601FE0544D6D6805F47012D4
:101D1000524D6D6805F48034022505EB92421CB9E2
:101D2000544D554305600BE04C4D6D6805F400358E
:101D30001DB1504D5543056002E04D4D55430560C2
:101D400002E04B4D056000BF00BF444D6D6805F0DB
:101D5000F0010909484D6B5C0568DD4045603F4D69
:101D60006D6805F4E061090A434D6B5C4568DD4030
:101D700085603A4D6D6805F46051C90A3E4D6B5C53
:101D80004568DD40C560354D6D6805F44041890BFF
:101D90003A4D6B5CC568B5FBF3F5056130BD29B103
:101DA0002E4A526902432D4B5A6104E02B4A526974
:101DB00082432A4B5A61704729B1284A92690243EB
:101DC000264B9A6104E0254A92698243234B9A612B
:101DD000704729B1214AD2690243204BDA6104E0FD
:101DE0001E4AD26982431D4BDA61704729B11B4AF2
:101DF000D2680243194BDA6004E0184AD268824381
:101E0000164BDA60704729B1144A12690243134B2A
:101E10001A6104E0114A12698243104B1A6170473B
:101E200012494039086070470F49C86470470B4930
:101E3000C87170470948406A40F08070074948629D
:101E4000704701460020054A92680A400AB1012005
:101E500000E000207047014988727047001002407E
:101E60000000FFF8FFFFF6FE0000424280044242FD
:101E700000127A0000093D003200002042000020DC
:101E800010B50446FB48844209D101218803FFF7BD
:101E9000ADFF00214FF48040FFF7A8FF32E0F64885
:101EA000844209D101214804FFF7ADFF00214FF41E
:101EB0000030FFF7A8FF25E0F048844209D1012156
:101EC0008804FFF7A0FF00214FF48020FFF79BFF5D
:101ED00018E0EB48844209D10121C804FFF793FFC1
:101EE00000214FF40020FFF78EFF0BE0E54884420D
:101EF00008D101210805FFF786FF00214FF480106B
:101F0000FFF781FF10BD2DE9F04786B005460E466C
:101F10000024A24600BFA1460027B08900B100BF3F
:101F20002F462C8A4CF6FF700440F08804432C8224
:101F3000AC894EF6F3100440B088318908437189AA
:101F400008430443AC81AC8A4FF6FF400440B0899B
:101F50000443AC8201A8FFF7C2FEC648874202D103
:101F6000DDF810A001E0DDF80CA0A88900F4004025
:101F700040B10AEBCA0000EB0A1031684900B0FB1F
:101F8000F1F807E00AEBCA0000EB0A10316889009B
:101F9000B0FBF1F86420B8FBF0F0040120096421E3
:101FA00001FB1089A88900F4004040B1322000EB09
:101FB000C900B0FBF1F000F00700044308E0322054
:101FC00000EB09106421B0FBF1F000F00F000443B6
:101FD0002C8106B0BDE8F0874FF416510160002156
:101FE0008180C18001810C21418100218181704764
:101FF00010B502460020108A4FF2FF0318400B88EC
:102000004C8823438C882343CC8823431843108275
:1020100010BD0021018041808180C180704721B1C5
:10202000828942F40052828104E082894DF6FF7376
:102030001A4082817047F0B503460024002600252F
:10204000002040F66A17B94200D100BF1846C1F31C
:10205000421401F01F06012707FA06F5012C01D1F1
:102060000C3004E0022C01D1103000E014301AB121
:1020700007682F43076002E00768AF430760F0BDC1
:102080001AB1838A0B43838202E0838A8B43838263
:102090007047028A4FF6F0731A400282028A0A439E
:1020A0000282704782894FF2FF731A4082818289CF
:1020B0000A438281704721B1828942F00202828103
:1020C00004E082894FF6FD731A4082817047028ACC
:1020D0004FF6DF731A400282028A0A430282704777
:1020E00021B1028A42F48042028204E0028A4BF665
:1020F000FF731A4002827047C1F308028280704762
:1021000001468888C0F308007047818941F00101C9
:1021100081817047028BD2B20283028B42EA012294
:1021200002837047028B02F47F420283028B0A43D0
:102130000283704721B1828A42F02002828204E049
:10214000828A4FF6DF731A408282704721B1828AF9
:1021500042F01002828204E0828A4FF6EF731A4046
:102160008282704721B1828A42F00802828204E0B2
:10217000828A4FF6F7731A408282704721B18289B2
:1021800042F40042828103E08289C2F30E0282811E
:10219000704721B1828A42F40062828204E0828A1E
:1021A0004FF2FF731A4082827047828A4FF6FB73A8
:1021B0001A408282828A0A438282704721B1828ACF
:1021C00042F00202828204E0828A4FF6FD731A40D6
:1021D0008282704702460020B1F5007F00D100BF27
:1021E00013880B400BB1012000E00020704701F480
:1021F0000072B2F5007F00D100BFCA430280704771
:1022000070B50246002400230025002040F66A161F
:10221000B14200D100BFC1F3421501F01F030126F6
:1022200006FA03F3012D02D19689334006E0022D10
:1022300002D1168A334001E0968A33400C120126FF
:1022400006FA04F41688344013B10CB1012000E002
:10225000002070BD10B50022002340F66A14A14290
:1022600000D100BF0A1201249440A3B2DC430480D1
:1022700010BD00000038014000440040004800400C
:10228000004C00400050004010B50446FE48844217
:1022900008D10121C014FFF7A9FD0021E014FFF7C8
:1022A000A5FDC4E0B4F1804F08D101210846FFF735
:1022B000AAFD00210120FFF7A6FDB8E0F348844203
:1022C00008D101210220FFF79EFD00210220FFF727
:1022D0009AFDACE0EE48844208D101210420FFF7CA
:1022E00092FD00210420FFF78EFDA0E0E948844222
:1022F00008D101210820FFF786FD00210820FFF703
:1023000082FD94E0E448844208D101211020FFF7C7
:102310007AFD00211020FFF776FD88E0DF48844237
:1023200008D101212020FFF76EFD00212020FFF7BA
:102330006AFD7CE0DA48844208D101214014FFF7AD
:1023400055FD00216014FFF751FD70E0D54884422F
:1023500009D10121C804FFF749FD00214FF40020F5
:10236000FFF744FD63E0D048844209D1012108050C
:10237000FFF73CFD00214FF48010FFF737FD56E0DA
:10238000CA48844209D101214805FFF72FFD0021E9
:102390004FF40010FFF72AFD49E0C548844208D1F8
:1023A00001214020FFF72FFD00214020FFF72BFDEA
:1023B0003DE0C048844208D101218020FFF723FD81
:1023C00000218020FFF71FFD31E0BB48844208D187
:1023D00001218015FFF717FD0021A015FFF713FD60
:1023E00025E0B648844209D101210804FFF7FEFC2C
:1023F00000214FF48030FFF7F9FC18E0B048844228
:1024000009D101214804FFF7F1FC00214FF400300D
:10241000FFF7ECFC0BE0AB48844208D101218804B3
:10242000FFF7E4FC00214FF48020FFF7DFFC10BD34
:1024300000220288944B98420ED0994B98420BD0C0
:10244000B0F1804F08D0914B984205D0904B984204
:1024500002D0904B984204D14FF68F731A404B88AC
:102460001A438D4B984207D08C4B984204D04FF6BC
:10247000FF431A40CB881A4302808B8883850B88E0
:102480000385814B98420BD0854B984208D08B4BEB
:10249000984205D08A4B984202D08A4B984201D18B
:1024A0000B7A038601238382704770B500240022D3
:1024B0000023058C4FF6FE7635400584028C838818
:1024C000048B4FF68F752C40B51E2C400D882C4385
:1024D000751E2A400D892A434D882A436A4DA84219
:1024E0000BD06F4DA84208D0744DA84205D0744D52
:1024F000A84202D0734DA84213D14FF6F7752A4077
:102500004D892A434FF6FB752A408D882A434FF6A2
:10251000FF652B404FF6FF552B408D892B43CD890E
:102520002B4383800483CD888586028470BD70B57B
:10253000002400220023058C4FF6EF7635400584F9
:10254000028C8388048B48F6FF752C404FF6FF45BC
:102550002C400D884FF6FF7606EA05252C434FF6F2
:10256000DF752A400D8906EA05152A434D8806EADB
:1025700005152A43444DA84202D0494DA8421DD119
:102580004FF67F752A404D894FF6FF7606EA05150E
:102590002A434FF6BF752A408D8806EA05152A435F
:1025A0004FF6FF352B404FF2FF752B408D8906EA21
:1025B00085052B43CD8906EA85052B43838004835B
:1025C000CD880587028470BD70B5002400220023E9
:1025D000058C4FF6FF6635400584028C8388848B1A
:1025E0004FF68F752C404FF6FC752C400D882C4310
:1025F0004FF6FF552A400D894FF6FF7606EA05256E
:102600002A434D8806EA05252A431F4DA84202D0D9
:10261000234DA8421DD14FF2FF752A404D894FF638
:10262000FF7606EA05252A434FF6FF352A408D88B6
:1026300006EA05252A434EF6FF752B404DF6FF7539
:102640002B408D8906EA05152B43CD8906EA051531
:102650002B4383808483CD888587028470BD70B5C9
:10266000002200230024058C4EF6FF7635400584B9
:10267000038C8488828B48F6FF752A404FF6FF450D
:102680002A400D8820E00000002C0140000400409A
:1026900000080040000C0040001000400014004002
:1026A00000340140004C0140005001400054014002
:1026B00000180040001C0040002000400040014085
:1026C00000440140004801404FF6FF7606EA052528
:1026D0002A434DF6FF752B400D8906EA05352B433D
:1026E0004D8806EA05352B43FA4DA84202D0FA4D33
:1026F000A84208D14BF6FF752C408D894FF6FF7626
:1027000006EA85152C4384808283CD88A0F840504A
:10271000038470BD828B4FF2FF331A408283828B19
:102720004FF6FF7303EA01231A4382837047F0B523
:102730000C461546002200210026078C4EF6FF7C31
:1027400007EA0C070784828B018C4FF6FF7707EAB4
:10275000043640F6FF473A404FF6FF7707EA052771
:102760003A434FF6FF7707EA03373A43D94FB84267
:102770000ED0D94FB8420BD0B0F1804F08D0D74F10
:10278000B84205D0D64FB84202D0D64FB84206D193
:102790004DF6FF77394046F48057394305E047F658
:1027A000FF57394044F48057394382830184F0BD98
:1027B000828B4FF6F3731A408283828B0A438283A3
:1027C0007047F0B50C461546002200210026078C04
:1027D0004FF6FF6C07EA0C070784828B018C4FF6DB
:1027E000FF7707EA04264FF60C773A404FF6FF775B
:1027F00007EA03172F433A43B64FB8420ED0B64FFD
:10280000B8420BD0B0F1804F08D0B44FB84205D0D9
:10281000B34FB84202D0B34FB84206D14FF6FF577C
:10282000394046F48077394305E04FF2FF5739408D
:1028300044F48077394382830184F0BD028B4FF2E8
:10284000FF331A400283028B4FF6FF7303EA012322
:102850001A4302837047F0B50C461546002200214A
:102860000026078C4FF6EF7C07EA0C070784028BE3
:10287000018C4FF6FF7707EA041640F6FF473A400F
:102880004FF6FF7707EA03373A434FF6FF7707EA39
:1028900005273A438F4FB8420ED08F4FB8420BD026
:1028A000B0F1804F08D08D4FB84205D08C4FB84260
:1028B00002D08C4FB84206D14FF6DF77394046F050
:1028C0001007394305E04FF65F77394044F01007B1
:1028D000394302830184F0BD028B4FF6F3731A4033
:1028E0000283028B0A4302837047F0B50C461546FB
:1028F00000220021068C4FF6FE773E400684028BB4
:10290000018C4FF60C7632407E1C06EA03162E43ED
:102910003243704EB0420ED06F4EB0420BD0B0F189
:10292000804F08D06D4EB04205D06D4EB04202D0FF
:102930006C4EB04206D14FF6FD76314044F00106B0
:10294000314305E04FF6F576314044F0010631435E
:1029500002830184F0BD70B505460C465D48854292
:102960000ED05D4885420BD0B5F1804F08D05B4852
:10297000854205D05A48854202D05A48854200D146
:1029800000E000BF208850B92389A28861882846CA
:10299000FFF7ABFFE1882846FFF79EFF25E0208880
:1029A00004280AD12389A28861882846FFF753FFAB
:1029B000E1882846FFF742FF17E0208808280AD15F
:1029C0002389A28861882846FFF7FBFEE188284614
:1029D000FFF7EEFE09E02389A28861882846FFF709
:1029E000A6FEE1882846FFF795FE70BD2DE9F0416F
:1029F00005460C4600260127608808B9022600E03B
:102A00000026A088012801D1022700E001272088A4
:102A1000A0B92389A28861882846FFF766FFE1886C
:102A20002846FFF759FF23893A4631462846FFF7E3
:102A300012FFE1882846FFF701FF13E02389A288EF
:102A400061882846FFF707FFE1882846FFF7F6FE72
:102A500023893A4631462846FFF747FFE188284652
:102A6000FFF73AFFBDE8F0810A884B881A438B884C
:102A70001A43CB881A430B891A434B891A438B8913
:102A80001A43A0F8442070474FF6FF71818000215F
:102A90000180C18041800172704700210180418026
:102AA0008180C180018141818181C1817047002184
:102AB00001804180012181800021C1800181704716
:102AC0000021018041808180C1800181418181811B
:102AD00070470000002C0140003401400004004019
:102AE00000080040000C004021B1028842F00102C1
:102AF000028004E002884FF6FE731A40028070479D
:102B000031B1B0F8442042F40042A0F8442005E07E
:102B1000B0F84420C2F30E02A0F8442070471AB166
:102B200083890B43838102E083898B4383817047D0
:102B30008182704741EA0203A0F8483070471AB119
:102B400083890B43838102E083898B4383817047B0
:102B500001894FF6F8721140018170470A46002141
:102B600001894FF68F73194011430181704730B5C9
:102B700004460D4629462046FFF7F0FF208940F025
:102B80000700208130BD2DE9F04104460D46164670
:102B90001F46602D06D13B46012231462046FFF7F5
:102BA0005AFE05E03B46012231462046FFF79DFED6
:102BB00029462046FFF7D2FF208940F007002081F8
:102BC000BDE8F08130B50C4600210189C9B24FF64D
:102BD000FF7505EA0325154325432943018130BDCF
:102BE0002DE9F04105460E46174698460024434617
:102BF0003A4631462846FFF7E5FF2C894FF6F87034
:102C0000044044F007044FF68F70044044F0700411
:102C10002C81BDE8F081F0B504460D4616461F46EE
:102C20003B46324629462046FFF7CCFF208940F438
:102C300080402081F0BD0185828270470A460021D4
:102C400001884FF68F731940114301807047F0B52A
:102C50000C4615461E460021002200230189028BE6
:102C6000038C4FF6F877394021434FF6FC473A4042
:102C700040F201173A434FF6DD773B404FF6FF77BE
:102C800007EA06172F433B43018102830384F0BD0B
:102C90000A460021018B4FF68F73194011430183BF
:102CA00070470A460021018B48F6FF7319404FF622
:102CB000FF7303EA02231943018370470A46002188
:102CC000818B4FF68F7319401143818370470A46F9
:102CD0000021818B48F6FF7319404FF6FF7303EA1A
:102CE000022319438183704721B1028842F0800298
:102CF000028004E002884FF67F731A40028070471A
:102D000021B1828842F00402828004E082884FF67A
:102D1000FB731A408280704721B1828842F008021A
:102D2000828004E082884FF6F7731A4082807047F1
:102D300021B1828842F00102828004E082884FF64D
:102D4000FE731A40828070470A460021018B4FF6BD
:102D5000F77319401143018370470A460021018B24
:102D60004FF2FF7319404FF6FF7303EA0223194332
:102D7000018370470A460021818B4FF6F773194093
:102D80001143818370470A460021818B4FF2FF7304
:102D900019404FF6FF7303EA0223194381837047FA
:102DA0000A460021018B4FF6FB7319401143018342
:102DB00070470A460021018B4FF6FF3319404FF64A
:102DC000FF7303EA02231943018370470A46002177
:102DD000818B4FF6FB7319401143818370470A467C
:102DE0000021818B4FF6FF3319404FF6FF7303EA42
:102DF00002231943818370470A460021018B4FF655
:102E00007F7319401143018370470A460021018BEB
:102E1000C1F30E014FF6FF7303EA02231943018346
:102E200070470A460021818B4FF67F73194011438A
:102E3000818370470A460021818BC1F30E014FF652
:102E4000FF7303EA02231943818370470A46002176
:102E5000018C4FF6FD7319401143018470470A46F7
:102E60000021018C4FF6F77319401143018470471C
:102E70000A460021018C4FF6DF7319404FF6FF73AD
:102E800003EA02131943018470470A460021018CAA
:102E90004FF67F7319404FF6FF7303EA021319438D
:102EA000018470470A460021018C4FF6FF531940F8
:102EB0004FF6FF7303EA02231943018470470A4661
:102EC0000021018C4FF2FF7319404FF6FF7303EAA4
:102ED00002231943018470470A460021018C4DF6F4
:102EE000FF7319404FF6FF7303EA0233194301845D
:102EF000704730B5002301248C40A3B2048C9C435E
:102F00000484048C02FA01F5ADB22C43048430BD74
:102F100030B5002304248C40A3B2048C9C43048469
:102F2000048C02FA01F5ADB22C43048430BD70B5B7
:102F30000346002000241846183001258D40ACB20D
:102F40001D8CA5431D8409B1082909D100EB61003E
:102F5000056825F0700505600568154305600EE0FD
:102F60000D1FC5F34E052844056825F4E0450560AE
:102F700005684FF6FF7606EA02263543056070BD08
:102F800021B1028842F00202028004E002884FF67A
:102F9000FD731A400280704721B1028842F004029A
:102FA000028004E002884FF6FB731A4002807047EB
:102FB00021B1828842F08002828004E082884FF64C
:102FC0007F731A408280704702884FF6F7731A4069
:102FD000028002880A430280704782884FF68F730E
:102FE0001A40828082880A438280704702894FF6A5
:102FF000F8731A40028102890A43028170470289EC
:103000004FF67F731A40028102890A43028170479A
:10301000818470478185704781867047018770473A
:1030200081877047A0F84010704702884FF6FF4331
:103030001A40028002880A43028070470146888E47
:1030400070470146088F70470146888F70470146D8
:10305000B1F8400070470146888C70470146088DE2
:10306000704702460020138A0B400BB1012000E09C
:1030700000207047CA430282704730B502460020E4
:1030800000230024158A05EA0103958905EA010455
:1030900013B10CB1012000E0002030BDCA43028210
:1030A0007047000010B58CB004461E230BAA03A97C
:1030B000204600F0ABFE0090009810B101200CB04B
:1030C00010BD9DF82C00044400200B900EE04048F9
:1030D0009DF82C2050F8221003A800F0FFFD00B945
:1030E00008E09DF82C00401CC0B20B909DF82C000D
:1030F0000728ECD300BF9DF82C00072863D2DFE837
:1031000000F004053C5E6564630000BF31A001F07F
:103110008DF831A001F08AF83FA001F087F84EA0A9
:1031200001F084F85CA001F081F86BA001F07EF85A
:1031300079A001F07BF886A001F078F88BA001F06F
:1031400075F890A001F072F894A001F06FF899A0C2
:1031500001F06CF89EA001F069F8A4A001F066F8F7
:10316000B0A001F063F8BDA001F060F8C8A001F0C4
:103170005DF8D4A001F05AF89AE216A001F056F8D2
:10318000E0A001F053F800200B900EE0ED4800683D
:103190009DF82C2000EBC2004168EBA001F046F83E
:1031A0009DF82C00401CC0B20B90E648007D9DF8B5
:1031B0002C108842EADC07A001F038F878E205A07C
:1031C00001F034F8C4E171E245E219E2ECE10000FB
:1031D000480000200D0A00002D2D2D2D2D2D2D2D08
:1031E0002D2D2D2D2D2D2D2D2D2D2D2D2D2D2D2D0F
:1031F00055534D4152542056332E312D2D2D2D2D0A
:103200002D2D2D2D2D2D2D2D2D2D2D2D2D2D2D2DEE
:103210002D2D2D200D0A00002020202055534D413A
:103220005254CAC7D3C9414C49454E54454BBFAA15
:10323000B7A2B5C4D2BBB8F6C1E9C7C9B5C4B4AE6C
:10324000BFDAB5F7CAD4BBA5BDBBD7E9BCFE2CCD50
:10325000A8B9FD200D0A0000CBFC2CC4E3BFC9D2E5
:10326000D4CDA8B9FDB4AEBFDAD6FACAD6B5F7D375
:10327000C3B3CCD0F2C0EFC3E6B5C4C8CEBACEBAA1
:10328000AFCAFD2CB2A2D6B4D0D02ED2F2B4CB2C81
:10329000C4E3BFC90D0A0000D2D4CBE6D2E2B8FC29
:1032A000B8C4BAAFCAFDB5C4CAE4C8EBB2CECAFD51
:1032B00028D6A7B3D6CAFDD7D62831302F3136BD90
:1032C000F8D6C629A1A2D7D6B7FBB4AEA1A2BAAF91
:1032D000CAFDC8EB0D0A0000BFDAB5D8D6B7B5C82D
:1032E000D7F7CEAAB2CECAFD292CB5A5B8F6BAAF8B
:1032F000CAFDD7EEB6E0D6A7B3D63130B8F6CAE4E9
:10330000C8EBB2CECAFD2CB2A2D6A7B3D6BAAFCA0A
:10331000FDB7B5200D0A0000BBD8D6B5CFD4CABEC4
:103320002ED0C2D4F6B2CECAFDCFD4CABEBDF8D616
:10333000C6C9E8D6C3B9A6C4DC2CD0C2D4F6BDF841
:10334000D6C6D7AABBBBB9A6C4DC2E0D0A000000A6
:10335000BCBCCAF5D6A7B3D63A7777772E6F70651F
:103360006E6564762E636F6D0D0A000055534D41F6
:103370005254D3D037B8F6CFB5CDB3C3FCC1EE3A73
:103380000D0A00003F3A202020202020BBF1C8A1D8
:10339000B0EFD6FAD0C5CFA20D0A000068656C70F8
:1033A0003A202020BBF1C8A1B0EFD6FAD0C5CFA2F9
:1033B0000D0A00006C6973743A202020BFC9D3C382
:1033C000B5C4BAAFCAFDC1D0B1ED0D0A0A00000004
:1033D00069643A2020202020BFC9D3C3BAAFCAFDF8
:1033E000B5C44944C1D0B1ED0D0A0A006865783A08
:1033F00020202020B2CECAFD3136BDF8D6C6CFD4AB
:10340000CABE2CBAF3B8FABFD5B8F12BCAFDD7D6CD
:10341000BCB4D6B4D0D0BDF8D6C6D7AABBBB0D0AB3
:103420000A0000006465633A20202020B2CECAFD65
:103430003130BDF8D6C6CFD4CABE2CBAF3B8FABF65
:10344000D5B8F12BCAFDD7D6BCB4D6B4D0D0BDF810
:10345000D6C6D7AABBBB0D0A0A00000072756E74EF
:10346000696D653A312CBFAAC6F4BAAFCAFDD4CB98
:10347000D0D0BCC6CAB13B302CB9D8B1D5BAAFCACE
:10348000FDD4CBD0D0BCC6CAB13B0D0A0A000000A7
:10349000C7EBB0B4D5D5B3CCD0F2B1E0D0B4B8F16D
:1034A000CABDCAE4C8EBBAAFCAFDC3FBBCB0B2CE5A
:1034B000CAFDB2A2D2D4BBD8B3B5BCFCBDE1CAF838
:1034C0002E0D0A002D2D2D2D2D2D2D2D2D2D2D2D9B
:1034D0002D2D2D2D2D2D2D2D2D2D2D2D2D2D414CE9
:1034E00049454E54454B2D2D2D2D2D2D2D2D2D2D5A
:1034F0002D2D2D2D2D2D2D2D2D2D2D2D2D2D2D2009
:103500000D0A00002D2D2D2D2D2D2D2D2D2D2D2D88
:103510002D2D2D2D2D2D2D2D2D2D2D2D2DBAAFCA2F
:10352000FDC7E5B5A52D2D2D2D2D2D2D2D2D2D2DA9
:103530002D2D2D2D2D2D2D2D2D2D2D2D2D2D2D2DBB
:10354000200D0A007400002025730D0A0000000001
:10355000EFA000F06BFE00200B901AE0FC49096818
:103560009DF82C2001EBC20101AB02AA486803A917
:1035700000F072FCF64800689DF82C1050F83120DD
:1035800003A9F4A000F052FE9DF82C00401CC0B22C
:103590000B90EF48007D9DF82C108842DEDCAFF2E6
:1035A000CC3000F043FE83E0AFF2D83000F03EFEB6
:1035B0000BAA03A9204600F02BFD9DF82C00C8B9EA
:1035C000694603A800F0BDFB0B909DF82C0020B9C4
:1035D000E5A0009900F02AFE0EE09DF82C000428DA
:1035E00001D002206BE5E3A000F020FE0120D849C5
:1035F000C87501E0022062E5DDA000F017FE57E08B
:10360000DBA000F013FE0BAA03A9204600F000FD8A
:103610009DF82C00C8B9694603A800F092FB0B90F6
:103620009DF82C0020B9D8A0009900F0FFFD0EE015
:103630009DF82C00042801D0022040E5D5A000F020
:10364000F5FD0020C249C87501E0022037E5C8A099
:1036500000F0ECFD2CE0C6A000F0E8FD0BAA03A9E9
:10366000204600F0D5FC9DF82C00C8B9694603A897
:1036700000F067FB0B909DF82C0078B9B4490098D6
:1036800081F8EC00084690F8EC0018B1C6A000F0F4
:10369000CDFD07E0CBA000F0C9FD03E002200EE560
:1036A00002200CE5B2A000F0C1FD01E0012006E51A
:1036B00000BF002003E510B50121C948FFF7DAFC7F
:1036C0004FF6FF71C648FFF7A5FC0021C448FFF77D
:1036D0009FFC00209E49C1F8F00010BD10B50121EB
:1036E000BF48FFF7BEFC012808D19948D0F8F00088
:1036F0004FF6FF7108449649C1F8F000B848FFF74B
:10370000AAFC9349D1F8F01008449149C1F8F0009F
:103710000846D0F8F00010BD10B50121B048FFF701
:10372000ACFC01280AD18A49086980470021AC48CD
:10373000FFF76EFC6421AA48FFF76CFC0121A84842
:10374000FFF7ACFC10BD7FB505460C4601210420F7
:10375000FEF73FFBADF80850ADF804400020ADF88F
:103760000A00ADF8060001A99D48FEF761FE01229E
:1037700041219B48FFF7D3F91E208DF8000003205C
:103780008DF801008DF8020001208DF803006846D5
:10379000FDF78DFF01219248FFF7A6F97FBD10B517
:1037A000044604EBC40000EB04100122C2EB8000CD
:1037B00081B24FF47A70FFF7C6FF01206449C875E3
:1037C00010BD30B595B0054613AB12AA09A928461D
:1037D00000F042FB044614B1204615B030BD002075
:1037E000149026E05A4909689DF8502001EBC20167
:1037F00013AB11AA486801A900F02EFB04460CB1D6
:103800002046EAE709A901A800F068FA60B99DF826
:1038100044009DF84810884201DD0220DDE79DF854
:1038200050004B4988750AE09DF85000401CC0B21A
:1038300014904748007D9DF850108842D2DC00BFAC
:103840004348007D9DF85010884201D10420C4E710
:1038500014A9284600F04DFC04460CB12046BCE7F4
:103860009DF850003A4948750020B6E72DE9F0412F
:103870009AB03748847D007DA04202DC1AB0BDE8D2
:10388000F0813349096801EBC40106AB07AA486817
:1038900008A900F0E1FA08A952A000F0C7FC002630
:1038A000BAE02B48008B0121B1400840D8B1222159
:1038B0004EA000F0BBFC304600F00EFC2449243141
:1038C000471839464AA000F0B1FC222147A000F079
:1038D000ADFC304600F000FC1D492431084410A91D
:1038E00041F826008EE0304600F0F6FB18492431FE
:1038F000085810A941F826001548C07D30B910A815
:1039000050F826103BA000F091FC7BE074E0000032
:103910002D2D2D2D2D2D2D2D2D2D2D2D2D2D2D2DD7
:103920002D2D2D2D2D2D2D2D2DBAAFCAFD20494425
:10393000202D2D2D2D2D2D2D2D2D2D2D2D2D2D2DC4
:103940002D2D2D2D2D2D2D2D2D2D2D2D200D0A0024
:103950007400002025732069642069733A0D0A30D1
:1039600058253038580D0A004845583A30582558DF
:103970000D0A00003136BDF8D6C6B2CECAFDCFD48E
:10398000CABE210D0A0000004445433A256C750D5E
:103990000A0000003130BDF8D6C6B2CECAFDCFD481
:1039A000CABE210D0A00000052756E2054696D6573
:1039B0002043616C63756C6174696F6E204F4E0DAE
:1039C0000A00000052756E2054696D652043616CD9
:1039D00063756C6174696F6E204F46460D0A000076
:1039E000000800400D0A2573280000002563000030
:1039F00025730000256C750010A850F8261095A0BE
:103A000000F014FC9DF81C00401EB04202D093A0B0
:103A100000F00CFC701CC6B29DF81C008642FFF63C
:103A200040AF8FA000F002FCFFF745FE8D48407DBF
:103A30000B280DD2DFE800F0060D151E27323F4E91
:103A40005F7287008749096851F83400804705464E
:103A500090E0844A126852F834101098884705465E
:103A600088E0804B1B6853F83420DDE91001904753
:103A700005467FE07B4F3F6857F8343010A807C8F1
:103A80009847054676E0DFF8DCC1DCF800C05CF85A
:103A9000347010A80FC8B84705466BE01498DFF8DB
:103AA000C4C10090DCF800C05CF8347010A80FC8E6
:103AB000B84705465EE0DDE91401DFF8A8C1CDE9AD
:103AC0000001DCF800C05CF8347010A80FC8B847DB
:103AD00005464FE0DDE914121698DFF888C1CDE9FC
:103AE00000120290DCF800C05CF8347010A80FC817
:103AF000B84705463EE0DDE91423DDE91610DFF89E
:103B000064C1CDE90023CDE90210DCF800C05CF807
:103B1000347010A80FC8B84705462BE0DDE915231F
:103B2000DDE91710CDE90123CDE903101498DFF882
:103B300034C10090DCF800C05CF8347010A80FC8E5
:103B4000B847054616E0DDE91623DDE91810CDE992
:103B50000223CDE90410DDE91401DFF808C1CDE945
:103B60000001DCF800C05CF8347010A80FC8B8473A
:103B7000054600BF00BFFFF7B1FD9DF81800012802
:103B80000CD13848C07D20B9294637A000F04EFB43
:103B900007E0294636A000F049FB02E033A000F020
:103BA00045FB304890F8EC0088B12E48D0F8F00082
:103BB0000A21B0FBF1F201FB12072A48D0F8F0000D
:103BC000B0FBF1F83A4641462CA000F02FFB00BFB5
:103BD00054E670B53148008800F40040002833D026
:103BE0002E48057800202E4948551E4881682C48EB
:103BF000884704461CB91B49C868804721E028480B
:103C0000FFF750FA0546012D00D02C46CCB1012C0F
:103C100006D0022C08D0032C0AD0042C10D10BE0C3
:103C200020A000F003FB0BE021A000F0FFFA07E06A
:103C300022A000F0FBFA03E023A000F0F7FA00BF97
:103C400000BF00201549088070BD01460868704714
:103C50000160704730582558000000002C0000001B
:103C600029000000740000203D256C753B0D0A0002
:103C70003D305825583B0D0A0000000046756E6324
:103C800074696F6E2052756E2054696D653A2564B3
:103C90002E2531646D730D0A0000000030000020F5
:103CA000D8F00020BAAFCAFDB4EDCEF3210D0A0062
:103CB000B2CECAFDB4EDCEF3210D0A00B2CECAFDDC
:103CC000CCABB6E0210D0A00CEB4D5D2B5BDC6A5A9
:103CD000C5E4B5C4BAAFCAFD210D0A0002460AE028
:103CE00010780B78984201D001207047107800B905
:103CF00002E0521C491CF3E700BF0020F5E706E094
:103D000002780A70027802B902E0401C491CF7E709
:103D100000BF70470146002005E00A7802B903E0C1
:103D2000421CD0B2491CF8E700BF704710B50246EC
:103D3000012000E050430B1EA1F10104E1B2F9D1D2
:103D400010BD2DE9F04307460E4600254FF00A0846
:103D50003C46002030601FE02078392802DC2078C3
:103D600030280ADA2078462802DC2078412804DA54
:103D70002078582809D1012D07D12078412801DB6E
:103D80004FF01008681CC5B205E0207800B904E0C7
:103D90000120BDE8F083641CDEE700BF3C46B8F1BB
:103DA000100F0FD1032D01DA0220F2E7207830281E
:103DB00006D16078582803D1A41CA81EC5B204E01F
:103DC0000320E6E70DB90420E3E71BE00DB1681E10
:103DD000C5B22078392806DC2078302803DB20782B
:103DE000A0F1300902E02078A0F1370929464046C9
:103DF000FFF79CFF316809FB00103060641C2078DD
:103E000000B900E0E2E700BF0020C2E710B50446B9
:103E1000002010700BE020780870641C491C10789A
:103E2000401C10701078984201DB012010BD2078F2
:103E3000202802D020780028EDD10020087000BF93
:103E4000F4E70146491C00E0491C0878202801D10C
:103E50000029F9D1087870472DE9FF4F85B08046D9
:103E600089460027002004900390012002904FF023
:103E7000000B002544461DE02078202816D005F0D0
:103E80007F00052812DA0DB945F0800505F07F00A6
:103E9000042803D120782A2800D00EE0207805F0ED
:103EA0007F010DF80100681CC5B202E0852D00D12C
:103EB00003E0641C20780028DED100BF8DB1002013
:103EC00005F07F010DF80100CBA16846FFF706FF62
:103ED00018B900210898017002E0012108980170CA
:103EE00000254FF0000A444614E0641C0AF101006A
:103EF00000F0FF0A2078202802D020782A2809D153
:103F00002046FFF79EFF0646282E03D02A2E01D01A
:103F1000CDF810A02078282802D020780028E4D1FD
:103F20004446049810B10498401C04444FF0000A21
:103F3000002654E0207810B94FF0010A50E02078B4
:103F4000282803D116B9781CC7B213E02078292895
:103F500008D13EB917B1781EC7B201E04FF0010A8F
:103F600047B93DE02078222804D10EB9012000E0B5
:103F70000020064647B9207820282FD0207889F8DD
:103F8000000009F1010929E020782C2804D1012042
:103F90000290681CC5B214E02078202811D0207847
:103FA00028280ED04DB9BBF1050F06DA20780DF8A0
:103FB0000B000BF1010000F0FF0B0298401CC0B297
:103FC0000290012F0AD10298022807D10298401CC2
:103FD000C0B202900398401CC0B20390641CA9E7D1
:103FE00000BF0398012809D100200DF80B0082A121
:103FF0006846FFF773FE08B90020039007990398FD
:104000000870002089F80000504609B0BDE8F08F24
:10401000F0B503461546002000220026002455E096
:104020001F782C2F01D104B901221F78292F01D02C
:104030001F780FB904B94AE0002E34D11F78302F11
:1040400002DB1F78392F11DD1F78612F02DB1F780B
:10405000662F0BDD1F78412F02DB1F78462F05DD11
:104060001F78582F02D01F78782F0CD102B12EE084
:104070001F78612F03DB1F78203F0F7001E01F784E
:104080000F70491C1FE01F78222F04D102B11EE0DF
:104090000126012417E01F78202F14D01F782C2F21
:1040A00011D0FF2613E01F78222F00D1002402B187
:1040B0000DE044B11F785C2F02D15B1C471CF8B2A5
:1040C0001F780F70491C471CF8B25B1CA8E700BFA3
:1040D00000270F702E70F0BD02460020002105E081
:1040E000474B5B5C0344D8B24B1CD9B29142F7DB1F
:1040F00070472DE9F043B5B005460F460024002671
:1041000004E000213E488155701CC6B20A2EF8DB3F
:1041100006E06D1C287818B9012035B0BDE8F083A1
:1041200028782828F5D16D1C61E034AA6946284614
:10413000FFF76EFF064635449DF8D00020B10128F8
:1041400027D0FF284CD149E09DF8000000B333A9E7
:104150006846FFF7F6FD06460EB10220DDE7204671
:10416000FFF7BAFF26490A31339A0A50A1F1240019
:10417000008B0121A140884321491A390883042179
:104180001F480155601CC4B20A2C01DD0320C4E79E
:1041900026E06846FFF7BEFD401C00F0FF08204601
:1041A000FFF79AFF16490A3100EB010949466846B4
:1041B000FFF7A5FD12481A38018B0120A0400143EA
:1041C00088B20F491A3908830D4800F80480601C32
:1041D000C4B20A2C01DD03209FE701E002209CE726
:1041E00000BF2878292801D0287800B900E09CE792
:1041F00000BF3C70002090E7766F6964000000000B
:104200008E000020704700001CB50C46064B7B4416
:1042100069460090204600F028FB044600206946CD
:1042200000F036FB20461CBD7F0600000FB4044999
:1042300010B503AA029800F047FB10BC5DF814FB10
:104240002C00002070B5044685690068C10601D5C0
:10425000302600E02026C00707D070BDD4E9012138
:1042600030469047206A401C20626D1EF6D570BD16
:1042700070B5044685690078C00707D170BDD4E9E0
:10428000012120209047206A401C20626D1EF6D537
:1042900070BD70B50C460546012A05D02878800609
:1042A00000D5EA69002302E0012305E05B1C93428C
:1042B00002D2E05C0028F9D1A869E618C01AA8610A
:1042C000286A184428622846FFF7BCFF04E0D5E9B5
:1042D000012114F8010B9047B442F8D32846FFF7A8
:1042E000C7FF70BD2DE9F04106460024106875290E
:1042F000314616A510D000F034FA002802DA404208
:1043000013A507E031688A0701D512A502E0490725
:1043100004D511A5012401E000F02CFA00210A22A5
:1043200006F1240709E0B0FBF2FCB0FBF2F302FB5C
:104330001C00303078541846491C0028F3D123461D
:104340002A463046BDE8F04100F01DBA00000000EA
:104350002D0000002B00000020000000F0B40D46EE
:104360000188090502D5214C7C4402E01F4C7C44A5
:104370000E34002100F1240608E002F00F071209B4
:10438000E75D42EA03721B097754491C52EA0307AE
:10439000F3D102780023120704D5702D06D009B19D
:1043A000022311342246F0BC00F0EDB90123103491
:1043B000F8E770B504460D462146106800F0DAF9BA
:1043C000024629462046BDE870400023C6E7D21DBC
:1043D00022F00703D3E90023C0E70368126843F023
:1043E000200303600823C3610023B7E7D61600004B
:1043F0002DE9F05F894604464FF0000ADFF874B1FA
:10440000FB44C0F820A02046E1688847002874D00B
:10441000252806D0D4E901219047206A401C20625B
:10442000F1E700265F462046E168884720280546D8
:1044300007DB312D05D2781910F8200C08B106439E
:10444000F1E7B00701D526F00406C4F81CA0002748
:10445000C4F818A02A2D09D0284601F0B7FA38B3BD
:1044600004EB8708303DC8F8185019E059F8041BD0
:10447000204604EB87029161E1688847012F0546D9
:1044800018D1E069002820DA26F020061DE0D8F8CF
:10449000180000EB800005EB40003038C8F8180029
:1044A0002046E1688847054601F090FA0028EED1E1
:1044B000012F0AD02E2D08D12046E16888477F1CA5
:1044C0000546022F46F02006C4DBA069002803DA67
:1044D000404246F00106A061F00701D026F0100628
:1044E0006C2D0BD0682D09D04C2D39D06A2D35D0CC
:1044F000742D35D07A2D33D016E038E0E1682F46A0
:1045000020468847B842054609D16C2F26D04FF483
:104510008060E168064320468847054604E06C2F2A
:104520001AD04FF4807006430DB3A5F1410019284D
:1045300002D8203546F400664A46294620462660C1
:104540004E46FBF74FFE80B101280BD0F61D26F03A
:10455000070000F1080956E74020E4E78020D8E78B
:104560000020D6E706F104094DE7284652E7206A05
:10457000BDE8F09F6616000030B505460B462A469A
:1045800013F8014B12F8010B08B1A042F8D01CB18E
:10459000002802D06D1CF1E7284630BD10B5431C41
:1045A00002E010F8011B71B18107FAD14FF001321E
:1045B00002C88C1A8C4314EAC211F9D0C01A0A0638
:1045C00003D0C01E10BDC01A10BD0A0401D0801E49
:1045D00010BD0902FCD0401E10BD032A40F23080FD
:1045E00010F0030C00F0158011F8013BBCF1020F34
:1045F000624498BF11F801CB00F8013B38BF11F8B5
:10460000013BA2F1040298BF00F801CB38BF00F8CB
:10461000013B11F0030300F02580083AC0F0088048
:1046200051F8043B083A51F804CBA0E80810F5E72C
:10463000121D5CBF51F8043B40F8043BAFF300800F
:10464000D20724BF11F8013B11F801CB48BF11F884
:10465000012B24BF00F8013B00F801CB48BF00F854
:10466000012B704710B5203AC0F00B80B1E818500C
:10467000203AA0E81850B1E81850A0E81850BFF44C
:10468000F5AF5FEA027C24BFB1E81850A0E81850EB
:1046900044BF18C918C0BDE810405FEA827C24BF3F
:1046A00051F8043B40F8043B08BF7047D20728BFCD
:1046B00031F8023B48BF11F8012B28BF20F8023B1C
:1046C00048BF00F8012B70474FF000020429C0F0EA
:1046D000128010F0030C00F01B80CCF1040CBCF134
:1046E000020F18BF00F8012BA8BF20F8022BA1EB86
:1046F0000C0100F00DB85FEAC17C24BF00F8012B6B
:1047000000F8012B48BF00F8012B70474FF0000262
:1047100000B5134694469646203922BFA0E80C50B7
:10472000A0E80C50B1F12001BFF4F7AF090728BF92
:10473000A0E80C5048BF0CC05DF804EB890028BF0E
:1047400040F8042B08BF704748BF20F8022B11F037
:10475000804F18BF00F8012B7047704770477047B3
:10476000704709684A0501D540B27047C905FCD5B4
:1047700000B2704709684A0501D5C0B27047C90543
:10478000FCD580B270472DE9F0470D469946924618
:10479000044600F124080168880604D5E06921F088
:1047A0001001216000E00120A84201DD471B00E06C
:1047B0000027A1697A1902EB0900081AA061207884
:1047C000C00602D42046FFF73DFD002608E0D4E9EC
:1047D00001211AF806009047206A401C761C2062CE
:1047E0004E45F4DB2078C0060AD52046FFF72AFDA7
:1047F00006E0D4E9012130209047206A401C206265
:10480000381EA7F10107F4DC07E0D4E9012118F80C
:1048100005009047206A401C2062281EA5F1010572
:10482000F3DC2046FFF724FD2078000602D50220A5
:10483000BDE8F0870120FBE711680268006A5305B4
:1048400001D508700AE0D30501D5088006E01306FB
:1048500003D5C217C1E9000200E0086001207047DB
:1048600001694A1C02610878704700B58FB0CDE934
:1048700001310021059105497944CDE90310114624
:104880006846FFF7B5FD0FB000BD0000E5FFFFFF74
:104890000A6802F8010B0A60704710B5436913B14A
:1048A000AFF3008001E0FFF7F4FC012010BD1278A7
:1048B00000F124010A7000224A700122EDE711681C
:1048C0004FF0FF32E9E70000074B70B50D467B441F
:1048D000FFF7CBFF0446284600F046FB10B14FF02F
:1048E000FF3070BD204670BDADCBFFFF2DE9FF5FEF
:1048F00015468A460446DFF8AC80F8440027D8E91C
:1049000000103E46CDE9001010E03AF816106A4655
:1049100002A800F02DFB411C07D02178890603D5A1
:10492000E269391891420DD80744761C2078800638
:1049300002D5E069B84205DDAE42E6DB3AF8160082
:104940000028E2D1A069C01BA0612046FFF77AFCD5
:10495000D8E90010CDE90010002017E03AF818104F
:104960006A4602A800F004FBB0F1FF3F81460BD07D
:1049700000250DF1080B05E0D4E901211BF8050025
:1049800090476D1C4D45F7D308F10100B0428046B9
:10499000E4DB206A384420622046FFF769FCBDE86A
:1049A000FF9F00007E1100002DE9F0418046D21DDE
:1049B00022F007020025D2E90002F52915A614D03D
:1049C000011E72F1000106DA0023D0EB030063EB55
:1049D000020211A608E0D8F800108B0701D50FA637
:1049E00002E0490701D50EA601251146002408F171
:1049F000240704E000F04EF830323A55641C50EAC7
:104A00000102F7D12B46324621464046BDE8F0412F
:104A1000FFF7B9BE000000002D0000002B000000D1
:104A20002000000030B4002100F1240408E002F06E
:104A30000705D208303542EA4372DB086554491C49
:104A400052EA0305F3D10468002310A2250707D515
:104A5000A40600D421B1C46901230DA2641EC4615F
:104A600030BCFFF790BE10B5044621461068FFF732
:104A700081FE02462046BDE810400023D2E7D21D49
:104A800022F00701D1E90023CCE70000000000007C
:104A90003000000030B5B0F10A024FEA900E71F11B
:104AA00000034EEA817EB0EB0E0061EB91014FEA0C
:104AB000101E4EEA017E10EB0E0041EB11114FEA81
:104AC000102E4EEA016E10EB0E0041EB11214FEA61
:104AD000104E4EEA014E10EB0E0041EB1141401812
:104AE00041F100014FEAD00040EA41704FEAD101A4
:104AF00010EB80054FEA810444EA907444EB010412
:104B00006D1944EB0404521BA3414FF0000348BF4E
:104B10000A3200D530BD401C41F1000130BD704764
:104B20002DE9FF4F0C461E464FF0FF378BB0D2E900
:104B30000001DDF860800A908A46C1F30A5505B984
:104B40003D46002108464FF00000BAF1000F00F486
:104B5000400005DA00EB80004FF4400101EA50000C
:104B60004FEA9059B9F1010F00DDB9460A9850EAB1
:104B70004A000ED044F61050A5F2FF3545432F14DD
:104B8000B8F1000F1ED07542291E1EDDC9F10002CA
:104B90001CE0B8F1010F4FF0000001D0302103E01C
:104BA000F24305E02154401CB042FBDB30460022BA
:104BB000002121540B99C1F80880C1E900200FB0F1
:104BC000BDE8F08FBD1B6D1CDEE74A4600DA694286
:104BD00006A800F05FFA06AB93E8070003AB83E892
:104BE000070050460A9900F015FB8DE80700A0F574
:104BF00000501F3800900398002D0ADD42F21F017B
:104C00004A460844002303A90390684600F07EFD4D
:104C100009E0A0F500504A461F38002303A903907D
:104C2000684600F088FD8DE807000004000C03D002
:104C30004FF0FF30410800E01046B8F1000F03D0FC
:104C40000022009215461EE0751E05D4FFF722FFD4
:104C5000303262556D1EF9D5B3460122084302D0A9
:104C600000227F1C04E02078302801D100227F1E22
:104C7000002A099784D01DE0112D07DAFFF70AFFFB
:104C8000303262556D1C50EA0102F5D1084302D062
:104C90000098C8B10EE00021681E05E0235C625C4C
:104CA00063542254401E491C8142F7DBAB46A81BCB
:104CB000401E0990002004F80B000B98099AC0F8D8
:104CC0000880C0E9002B7AE711264FF0000857E76B
:104CD0002DE9F04F88460446D21D22F0070191B01D
:104CE000D1E90001CDE90A0100F05CFE02460B9813
:104CF000C00F01D02D2007E02068810701D52B20AF
:104D000002E0202101EAC000032A099001D0072A0D
:104D100005DB03464146204600F07CF90BE1207894
:104D2000800601D5E06900E00620B8F1650F8146F4
:104D300006D0B8F1660F18D0B8F1670F70D131E026
:104D40000020B9F1110F009001DB112301E009F1FE
:104D500001030AAA01A90CA8FFF7E2FEDDE90C7025
:104D6000002609F10105834647E001204B460090EB
:104D70004FF000470AAA01A90CA8FFF7D1FEDDE910
:104D80000DB00C995D46002610B909F101000D180F
:104D9000B9EB050003D4C0F1FF3609F10105A5EB1D
:104DA00009002BE0B9F1010F01DA4FF001090020F1
:104DB000B9F1110F0090484601DD112300E00346D0
:104DC0000AAA01A90CA8FFF7ABFEDDE90C704D465D
:104DD00000268346207800070AD4AB4500DA5D46FA
:104DE00001A8012D04DD411911F8011C302907D05B
:104DF0004F4502DA17F1040F04DA012082460FE072
:104E00006D1EEEE7002F02DCED1B3E4403E0781C34
:104E1000A84200DD7D1CB81B00F1010A4FF00047DD
:104E20002078000703D4AA4501DB4FF0FF3A0021A8
:104E3000B7F1004F0DF143088DF8431024D0022044
:104E40002B23002F01DA7F422D230A21021EA0F11D
:104E5000010000DC5FB197FBF1FC97FBF1F201FB75
:104E60001C7C17460CF1300C08F801CDEEE7A8F1D8
:104E7000010003702188090501D5452100E0652165
:104E8000A0F1010800F8011C09980FA9A1EB08077F
:104E9000FF1D00B10120411901EBEA70A1693844FE
:104EA000081A401EA0612078C00602D42046FFF7F1
:104EB000C9F9099828B1D4E901219047206A401C1A
:104EC00020622078C00622D52046FFF7BBF91EE0FD
:104ED000002E04DBB34502DD01A8805D00E0302038
:104EE000D4E901219047206A401C2062761CAAF177
:104EF00001005FEA000A0AD100F088F8C068016882
:104F0000405CD4E901219047206A401C2062281EA1
:104F1000A5F10105DCDC07E0D4E9012118F8010B5B
:104F20009047206A401C2062381EA7F10107F3DC7D
:104F30002046FFF79DF9032011B041E610B5436903
:104F400013B1AFF3008001E0FFF7D0FC012010BDEA
:104F5000128800F1240182840022C2840122EDE73C
:104F600011684FF0FF32E9E7007B00F080007047E6
:104F700070B516460C46054600F040F8036893F8F5
:104F80000101012806D0FF2C0FD8185D68B101205F
:104F90002C7070BDD3F807013246214603F2071387
:104FA00003442846BDE8704018474FF0FF3070BDFD
:104FB000754600F0EBF8AE4605006946534620F012
:104FC0000700854618B020B5FCF75AFBBDE8204025
:104FD0004FF000064FF000074FF000084FF0000BB5
:104FE00021F00701AC46ACE8C009ACE8C009ACE868
:104FF000C009ACE8C0098D467047000010B500F04C
:1050000005F8001D10BD00BF010A000000487047F0
:1050100088F600202DE9F0411F460446032601686A
:10502000072A01F4006004DB08B116A505E016A507
:1050300003E008B115A500E015A521F010002060DF
:10504000A069C01EA0610FB1401EA0612046FFF7FD
:10505000F9F84FB1D4E9012138469047206A401C45
:105060002062C01C206206E0206AFAE7D4E9012130
:1050700015F8010B9047761EF8D22046FFF7F8F896
:10508000BDE8F0814E414E006E616E00494E460013
:10509000696E66002DE9F047814616468AB03548AC
:1050A00078440DC88DE80D0032487844801C03AC6C
:1050B0000DC884E80D0041F69B300844372190FB71
:1050C000F1F290FBF1F5A5F1800501FB12041B3C08
:1050D00002D56442012000E00020DFF898A080465D
:1050E0000027FA44AAF1BE0A0EE0E0070AD03246D1
:1050F000684607EB470101230AEB810100F01BFB27
:105100008DE8070064107F1C002CEED1194F7F44FE
:10511000AE3F19E0E80715D007EB04100DF1180AAF
:1051200090E80E008AE80E00C068F04201D198199C
:1051300008903246012306A903A800F0FCFA03AB4D
:1051400083E807006D10641C002DE3D14FF00103CC
:1051500032466946B8F1000F03A802D000F0D6FA33
:1051600001E000F0E8FAC9E90001C9F808200AB036
:10517000BDE8F0875C0A000010B50446AFF300807C
:105180002046BDE81040FBF790B80000004870478B
:1051900068F600204FF0013C50F8042B51F8043B16
:1051A0009A4221D1A2EB0C03934313EACC1317D1FB
:1051B00050F8042B51F8043B9A4215D1A2EB0C0392
:1051C000934313EACC130BD150F8042B51F8043B52
:1051D0009A4209D1A2EB0C03934313EACC13DBD020
:1051E0004FF00000704700BFD01A01BAB1FA81F148
:1051F00001F0180122FA01F0CB40C1F12001DBB22D
:10520000C0B2C01A2CFA01F3D11A914311EAC311AA
:10521000E6D170475FEA400C08BF91F0000F4FEAFB
:105220008C234FEAC12243EA51514FEA1C5018BF68
:1052300000F5F0404FEA300018BF41F000415FEA4E
:105240006C5C00F02980BCF1FF3F08BF40F080405B
:105250007047130C06BF12044FF0100C4FF0000CF7
:10526000130E04BF12020CF1080C130F04BF12013D
:105270000CF1040C930F04BF92000CF1020CD30F3D
:1052800004BF52000CF1010C11464FF00002A0F1D6
:105290001F00A0EB0C00704711F0004F08BF7047D3
:1052A00031F000413FF4D5AF0B0C06BF09044FF0BD
:1052B000100C4FF0000C0B0E04BF09020CF1080C8F
:1052C0000B0F04BF09010CF1040C8B0F04BF890004
:1052D0000CF1020CCB0F04BF49000CF1010CCCF116
:1052E0002003A0EB0C0022FA03F302FA0CF241EACD
:1052F000030100F10100704720F07F4C80EA0300B9
:1053000023F07F47ACEB070303F57C5300F000402C
:1053100003F1FF032DE980494FEA154B09B44FEA29
:10532000144325EA0B4E24EA03480FF2042606EB49
:10533000132749083E785FEA320203FB0667C7F588
:10534000000707FB06F64FEA54374FEAD64606F148
:10535000020607FB066CCCF1005C4FEA1C472CEA06
:10536000074C07FB06F40CFB06F504EB15464FEA69
:10537000961634BF00204FF000404FEAD13706FBAD
:1053800007FC4FEA1C4C0CFB0BF7D21B03FB0CF782
:1053900061EB07010CFB0EF7B0EB074072EB174215
:1053A0000CFB08F734BFA2EB0742B2EB074261EBFC
:1053B00017414FEA0C444FEA910706FB07FC4FEAFE
:1053C0001C4C0CFB0BF7B0EBC74072EB573203FBE6
:1053D0000CF734BFA2EBC742B2EBC74261EB5731C7
:1053E0000CFB0EF7B0EBC70072EB57720CFB08F723
:1053F00034BFA2EBC702B2EBC70261EB5771039F48
:105400004FEA816141EA921104EBCC044FEAD137B3
:105410004FEA826206FB07FC42EA90124FEA806084
:105420004FEA1C4C0CFB0BF7D21B03FB0CF761EB98
:1054300007010CFB0EF7B0EB074072EB17420CFBB9
:1054400008F734BFA2EB0742B2EB074261EB17410A
:105450004FEA8C554FEA910704EB9C2406FB07FCAE
:105460004FEA1C4C0CFB0BF7B0EBC74072EB57320A
:1054700003FB0CF734BFA2EBC742B2EBC74261EBB0
:1054800057310CFB0EF7B0EBC70072EB57720CFBF9
:1054900008F734BFA2EBC702B2EBC70261EB57714A
:1054A00015EB4C254FEA816141EA92114FEA826285
:1054B0004FEAD13742EA901206FB07FC44F10004A0
:1054C0004FEA80604FEA1C4C0CFB0BF7D21B03FB2E
:1054D0000CF761EB07010CFB0EF7B0EB074072EB2A
:1054E00017420CFB08F734BFA2EB0742B2EB0742AE
:1054F00061EB174115EB1C154FEA813141EA9241EE
:105500004FEA823242EA90424FEA80304FEA0C760C
:1055100044F1000448EA03434EEA0B484FF0000E02
:10552000B2EB080C71EB030724BF624639464EEB21
:105530000E0E4FF0000B0018524149414BEB0B0B84
:10554000B2EB080C71EB03077BF1000B24BF624642
:1055500039464EEB0E0E4FF0000B001852414941F8
:105560004BEB0B0BB2EB080C71EB03077BF1000B61
:1055700024BF624639464EEB0E0E51EA020718BFB1
:1055800046F0010616EB0E7655F1000254F10001CB
:1055900003D5BDE88901BDE80088BDE88901BDE803
:1055A0000048B619524141EB0101A3F101037047D4
:1055B00080807F7E7D7C7B7A797877767675747350
:1055C000727171706F6E6E6D6C6C6B6A6A6968680F
:1055D000676666656464636362616160605F5F5EA5
:1055E0005E5D5D5C5C5B5B5A5A595958585757561B
:1055F0005655555554545353525252515150505080
:105600004F4F4F4E4E4D4D4D4C4C4C4B4B4B4A4AD1
:105610004A49494948484847474747464646454515
:10562000454444444443434343424242424141414E
:10563000002B9C4630D477002BD01CB54FEA37079F
:1056400003B44FF010004FF01001BAF1000F06D074
:10565000BCF1000FDCBF40F0080040F008014FF043
:1056600000000FBCBDE810400BF1010BBBF1010FB6
:1056700008BF5FEA170722BF12F1010211F1010111
:105680004FF0004143F1000300F0004043EA000006
:105690007047F9D35708D0E746EA064613F1400FA2
:1056A0004FEA16461FDD13F1200FDFBF16430A46EF
:1056B000002120335B42BED0C3F1200746EA0646F4
:1056C00002FA07F74FEA164646EA0706C3F1200733
:1056D00022FA03F201FA07F721FA03F14FF000036F
:1056E00042EA0702A7E746EA020646EA06464FEA0A
:1056F000164646EA0106BCBF46EA0646360C4FF09F
:1057000000034FF000024FF0000194E72DE9804CB8
:105710009A46934670B491E8380007C831EA400CC5
:1057200048BF34EA430C03D5FFF7E6FDFFF780FFDF
:10573000F0BCBDE8008C2DE9804C9A46934670B4CD
:1057400091E8380007C810F0804F08BF13F0804F71
:1057500003D100F005F8FFF76BFFF0BCBDE8008C4B
:1057600020F07F4780EA030023F07F4C07EB0C0317
:10577000A3F57C5300F00040A3F1FE0392F0000F6C
:1057800000F0B38095F0000F00F077802DE901491B
:105790004FEA11404FEA144621EA004800FB06FC9C
:1057A00024EA064708FB06F607FB08F800FB07F7A4
:1057B00018EB06484CEB164C4FEA124B18EB074817
:1057C0004FEA15464CEB174022EA0B4E0BFB06FC4A
:1057D00025EA06470EFB06F607FB0EFE0BFB07F756
:1057E0001EEB064E4CEB164C4FF000061EEB074E20
:1057F0004CEB174B18EB0B0840F1000018EB0E0BAD
:1058000058EB000840F100008F1A4FF000013CBF38
:10581000C943661B14BFB5EB040C00213CBFC94350
:10582000F61B4FEA17444EEA8E0E27EA04454FEA6C
:105830001C4704FB07622CEA074C05FB07F70CFB2F
:1058400005F604FB0CFC16EB074642EB174216EB81
:105850000C4642EB1C421BEB060658EB0202414190
:1058600046EA9E0601D5BDE80189B619524141EBD1
:105870000101A3F10103BDE801894FEA14454FEA94
:10588000114724EA054621EA074C05FB07F406FB0D
:1058900007F70CFB06F105FB0CFC11EB074144EB91
:1058A00017444FEA124711EB0C4144EB1C4422EA27
:1058B000074C05FB07F206FB07F70CFB06F605FB9A
:1058C0000CFC16EB074642EB174216EB0C4642EB7C
:1058D0001C456A1854F1000148BF7047B61952417F
:1058E00041EB0101A3F10103704795F0000F37D0A0
:1058F0004FEA11424FEA144721EA024624EA074CD4
:1059000002FB07F106FB07F70CFB06F402FB0CFC9D
:1059100014EB074441EB17414FEA154714EB0C44D5
:1059200041EB1C4125EA074C02FB07F506FB07F794
:105930000CFB06F602FB0CFC16EB074645EB174585
:1059400016EB0C4645EB1C42121951F1000148BF01
:105950007047B619524141EB0101A3F101037047B1
:105960004FEA14454FEA114724EA054621EA074C5D
:1059700005FB07F106FB07F70CFB06F24FF00006EC
:1059800005FB0CFC12EB074241EB174112EB0C42FA
:1059900051EB1C4148BF7047921841EB0101A3F144
:1059A00001037047490050EAC12018BF04204A0D86
:1059B00018BF40F0010040F2FF72B2EB515F08BF28
:1059C00040F00200012808BF0520704730380A283F
:1059D00001D20120704700207047000010B5002957
:1059E0000AD00878002807D005487844FFF7D2FB92
:1059F000002801D0002010BD0248784410BD0000EE
:105A0000B2010000AA01000010B500290AD00878F0
:105A1000002807D005487844FFF7BCFB002801D0D8
:105A2000002010BD0248784410BD0000A201000013
:105A30009A010000FFF74CB9584A42474A0000005B
:105A4000000030313233343536373839414243443F
:105A500045464030580030313233343536373839E6
:105A600061626364656640307800040000080000ED
:105A70000000000000020001000010000000000013
:105A80000000000002400000000000A00000000034
:105A900005400000000000C8000000000C400000AD
:105AA0000000409C00000000194000000020BCBE27
:105AB0000000000034400000BFC91B8E000000043D
:105AC000B5400000504BCFD06607E2CF0100000088
:105AD0006C4100003E8251AADFEEA73401000000B5
